{
  "abi": [
    {
      "inputs": [],
      "stateMutability": "nonpayable",
      "type": "constructor"
    },
    {
      "inputs": [],
      "name": "CallFailed",
      "type": "error"
    },
    {
      "inputs": [],
      "name": "DoorLocked",
      "type": "error"
    },
    {
      "inputs": [],
      "name": "DoorUnlocked",
      "type": "error"
    },
    {
      "inputs": [],
      "name": "InvalidKey",
      "type": "error"
    },
    {
      "inputs": [],
      "name": "MissingKey",
      "type": "error"
    },
    {
      "anonymous": false,
      "inputs": [
        {
          "indexed": true,
          "internalType": "address",
          "name": "owner",
          "type": "address"
        },
        {
          "indexed": true,
          "internalType": "address",
          "name": "spender",
          "type": "address"
        },
        {
          "indexed": true,
          "internalType": "uint256",
          "name": "id",
          "type": "uint256"
        }
      ],
      "name": "Approval",
      "type": "event"
    },
    {
      "anonymous": false,
      "inputs": [
        {
          "indexed": true,
          "internalType": "address",
          "name": "owner",
          "type": "address"
        },
        {
          "indexed": true,
          "internalType": "address",
          "name": "operator",
          "type": "address"
        },
        {
          "indexed": false,
          "internalType": "bool",
          "name": "approved",
          "type": "bool"
        }
      ],
      "name": "ApprovalForAll",
      "type": "event"
    },
    {
      "anonymous": false,
      "inputs": [
        {
          "indexed": true,
          "internalType": "address",
          "name": "owner",
          "type": "address"
        },
        {
          "indexed": true,
          "internalType": "address",
          "name": "door",
          "type": "address"
        },
        {
          "indexed": true,
          "internalType": "uint256",
          "name": "key",
          "type": "uint256"
        }
      ],
      "name": "KeyCreated",
      "type": "event"
    },
    {
      "anonymous": false,
      "inputs": [
        {
          "indexed": true,
          "internalType": "address",
          "name": "owner",
          "type": "address"
        },
        {
          "indexed": true,
          "internalType": "address",
          "name": "newOwner",
          "type": "address"
        },
        {
          "indexed": true,
          "internalType": "uint256",
          "name": "key",
          "type": "uint256"
        }
      ],
      "name": "KeyRecovered",
      "type": "event"
    },
    {
      "anonymous": false,
      "inputs": [
        {
          "indexed": true,
          "internalType": "address",
          "name": "owner",
          "type": "address"
        },
        {
          "indexed": true,
          "internalType": "address",
          "name": "door",
          "type": "address"
        },
        {
          "indexed": true,
          "internalType": "uint256",
          "name": "key",
          "type": "uint256"
        }
      ],
      "name": "KeyUsed",
      "type": "event"
    },
    {
      "anonymous": false,
      "inputs": [
        {
          "indexed": true,
          "internalType": "address",
          "name": "owner",
          "type": "address"
        },
        {
          "indexed": true,
          "internalType": "address",
          "name": "door",
          "type": "address"
        },
        {
          "indexed": true,
          "internalType": "uint256",
          "name": "key",
          "type": "uint256"
        }
      ],
      "name": "LockCreated",
      "type": "event"
    },
    {
      "anonymous": false,
      "inputs": [
        {
          "indexed": true,
          "internalType": "address",
          "name": "owner",
          "type": "address"
        },
        {
          "indexed": true,
          "internalType": "address",
          "name": "door",
          "type": "address"
        },
        {
          "indexed": true,
          "internalType": "uint256",
          "name": "key",
          "type": "uint256"
        }
      ],
      "name": "LockDestroyed",
      "type": "event"
    },
    {
      "anonymous": false,
      "inputs": [
        {
          "indexed": true,
          "internalType": "address",
          "name": "from",
          "type": "address"
        },
        {
          "indexed": true,
          "internalType": "address",
          "name": "to",
          "type": "address"
        },
        {
          "indexed": true,
          "internalType": "uint256",
          "name": "id",
          "type": "uint256"
        }
      ],
      "name": "Transfer",
      "type": "event"
    },
    {
      "inputs": [],
      "name": "DOMAIN_SEPARATOR",
      "outputs": [
        {
          "internalType": "bytes32",
          "name": "",
          "type": "bytes32"
        }
      ],
      "stateMutability": "view",
      "type": "function"
    },
    {
      "inputs": [
        {
          "internalType": "address",
          "name": "spender",
          "type": "address"
        },
        {
          "internalType": "uint256",
          "name": "id",
          "type": "uint256"
        }
      ],
      "name": "approve",
      "outputs": [],
      "stateMutability": "nonpayable",
      "type": "function"
    },
    {
      "inputs": [
        {
          "internalType": "address",
          "name": "owner",
          "type": "address"
        }
      ],
      "name": "balanceOf",
      "outputs": [
        {
          "internalType": "uint256",
          "name": "",
          "type": "uint256"
        }
      ],
      "stateMutability": "view",
      "type": "function"
    },
    {
      "inputs": [
        {
          "internalType": "address",
          "name": "to",
          "type": "address"
        },
        {
          "internalType": "address",
          "name": "door",
          "type": "address"
        }
      ],
      "name": "createKey",
      "outputs": [
        {
          "internalType": "uint256",
          "name": "key",
          "type": "uint256"
        }
      ],
      "stateMutability": "nonpayable",
      "type": "function"
    },
    {
      "inputs": [
        {
          "internalType": "uint256",
          "name": "key",
          "type": "uint256"
        },
        {
          "internalType": "address",
          "name": "door",
          "type": "address"
        }
      ],
      "name": "createLock",
      "outputs": [],
      "stateMutability": "nonpayable",
      "type": "function"
    },
    {
      "inputs": [
        {
          "internalType": "uint256",
          "name": "key",
          "type": "uint256"
        },
        {
          "internalType": "address",
          "name": "door",
          "type": "address"
        }
      ],
      "name": "destroyLock",
      "outputs": [],
      "stateMutability": "nonpayable",
      "type": "function"
    },
    {
      "inputs": [
        {
          "internalType": "uint256",
          "name": "",
          "type": "uint256"
        },
        {
          "internalType": "address",
          "name": "",
          "type": "address"
        }
      ],
      "name": "doesKeyFit",
      "outputs": [
        {
          "internalType": "bool",
          "name": "",
          "type": "bool"
        }
      ],
      "stateMutability": "view",
      "type": "function"
    },
    {
      "inputs": [
        {
          "internalType": "uint256",
          "name": "key",
          "type": "uint256"
        },
        {
          "internalType": "address",
          "name": "door",
          "type": "address"
        },
        {
          "internalType": "bytes",
          "name": "data",
          "type": "bytes"
        }
      ],
      "name": "execute",
      "outputs": [],
      "stateMutability": "payable",
      "type": "function"
    },
    {
      "inputs": [
        {
          "internalType": "uint256",
          "name": "",
          "type": "uint256"
        }
      ],
      "name": "getApproved",
      "outputs": [
        {
          "internalType": "address",
          "name": "",
          "type": "address"
        }
      ],
      "stateMutability": "view",
      "type": "function"
    },
    {
      "inputs": [
        {
          "internalType": "address",
          "name": "",
          "type": "address"
        },
        {
          "internalType": "address",
          "name": "",
          "type": "address"
        }
      ],
      "name": "isApprovedForAll",
      "outputs": [
        {
          "internalType": "bool",
          "name": "",
          "type": "bool"
        }
      ],
      "stateMutability": "view",
      "type": "function"
    },
    {
      "inputs": [
        {
          "internalType": "address",
          "name": "",
          "type": "address"
        }
      ],
      "name": "isLocked",
      "outputs": [
        {
          "internalType": "bool",
          "name": "",
          "type": "bool"
        }
      ],
      "stateMutability": "view",
      "type": "function"
    },
    {
      "inputs": [],
      "name": "name",
      "outputs": [
        {
          "internalType": "string",
          "name": "",
          "type": "string"
        }
      ],
      "stateMutability": "view",
      "type": "function"
    },
    {
      "inputs": [
        {
          "internalType": "address",
          "name": "",
          "type": "address"
        }
      ],
      "name": "nonces",
      "outputs": [
        {
          "internalType": "uint256",
          "name": "",
          "type": "uint256"
        }
      ],
      "stateMutability": "view",
      "type": "function"
    },
    {
      "inputs": [
        {
          "internalType": "uint256",
          "name": "id",
          "type": "uint256"
        }
      ],
      "name": "ownerOf",
      "outputs": [
        {
          "internalType": "address",
          "name": "owner",
          "type": "address"
        }
      ],
      "stateMutability": "view",
      "type": "function"
    },
    {
      "inputs": [
        {
          "internalType": "address",
          "name": "owner",
          "type": "address"
        },
        {
          "internalType": "address",
          "name": "newOwner",
          "type": "address"
        },
        {
          "internalType": "uint256",
          "name": "key",
          "type": "uint256"
        },
        {
          "internalType": "uint256",
          "name": "deadline",
          "type": "uint256"
        },
        {
          "internalType": "uint8",
          "name": "v",
          "type": "uint8"
        },
        {
          "internalType": "bytes32",
          "name": "r",
          "type": "bytes32"
        },
        {
          "internalType": "bytes32",
          "name": "s",
          "type": "bytes32"
        }
      ],
      "name": "recover",
      "outputs": [],
      "stateMutability": "nonpayable",
      "type": "function"
    },
    {
      "inputs": [
        {
          "internalType": "address",
          "name": "from",
          "type": "address"
        },
        {
          "internalType": "address",
          "name": "to",
          "type": "address"
        },
        {
          "internalType": "uint256",
          "name": "id",
          "type": "uint256"
        }
      ],
      "name": "safeTransferFrom",
      "outputs": [],
      "stateMutability": "nonpayable",
      "type": "function"
    },
    {
      "inputs": [
        {
          "internalType": "address",
          "name": "from",
          "type": "address"
        },
        {
          "internalType": "address",
          "name": "to",
          "type": "address"
        },
        {
          "internalType": "uint256",
          "name": "id",
          "type": "uint256"
        },
        {
          "internalType": "bytes",
          "name": "data",
          "type": "bytes"
        }
      ],
      "name": "safeTransferFrom",
      "outputs": [],
      "stateMutability": "nonpayable",
      "type": "function"
    },
    {
      "inputs": [
        {
          "internalType": "address",
          "name": "operator",
          "type": "address"
        },
        {
          "internalType": "bool",
          "name": "approved",
          "type": "bool"
        }
      ],
      "name": "setApprovalForAll",
      "outputs": [],
      "stateMutability": "nonpayable",
      "type": "function"
    },
    {
      "inputs": [
        {
          "internalType": "bytes4",
          "name": "interfaceId",
          "type": "bytes4"
        }
      ],
      "name": "supportsInterface",
      "outputs": [
        {
          "internalType": "bool",
          "name": "",
          "type": "bool"
        }
      ],
      "stateMutability": "view",
      "type": "function"
    },
    {
      "inputs": [],
      "name": "symbol",
      "outputs": [
        {
          "internalType": "string",
          "name": "",
          "type": "string"
        }
      ],
      "stateMutability": "view",
      "type": "function"
    },
    {
      "inputs": [
        {
          "internalType": "uint256",
          "name": "id",
          "type": "uint256"
        }
      ],
      "name": "tokenURI",
      "outputs": [
        {
          "internalType": "string",
          "name": "",
          "type": "string"
        }
      ],
      "stateMutability": "view",
      "type": "function"
    },
    {
      "inputs": [],
      "name": "totalSupply",
      "outputs": [
        {
          "internalType": "uint256",
          "name": "",
          "type": "uint256"
        }
      ],
      "stateMutability": "view",
      "type": "function"
    },
    {
      "inputs": [
        {
          "internalType": "address",
          "name": "from",
          "type": "address"
        },
        {
          "internalType": "address",
          "name": "to",
          "type": "address"
        },
        {
          "internalType": "uint256",
          "name": "id",
          "type": "uint256"
        }
      ],
      "name": "transferFrom",
      "outputs": [],
      "stateMutability": "nonpayable",
      "type": "function"
    }
  ],
  "bytecode": {
    "object": "0x60c06040523480156200001157600080fd5b50604080518082018252600881526725b2bcb1b430b4b760c11b6020808301918252835180850190945260038452624b455960e81b9084015281519192916200005d9160009162000129565b5080516200007390600190602084019062000129565b50504660805250620000846200008d565b60a052620002ae565b60007f8b73c3c69bb8fe3d512ecc4cf759cc79239f7b179b0ffacaa9a75d522b39400f6000604051620000c191906200020b565b6040805191829003822060208301939093528101919091527fc89efdaa54c0f20c7adf612882df0950f5a951637e0307cdcb4c672f298b8bc660608201524660808201523060a082015260c00160405160208183030381529060405280519060200120905090565b8280546200013790620001cf565b90600052602060002090601f0160209004810192826200015b5760008555620001a6565b82601f106200017657805160ff1916838001178555620001a6565b82800160010185558215620001a6579182015b82811115620001a657825182559160200191906001019062000189565b50620001b4929150620001b8565b5090565b5b80821115620001b45760008155600101620001b9565b600181811c90821680620001e457607f821691505b6020821081036200020557634e487b7160e01b600052602260045260246000fd5b50919050565b600080835481600182811c9150808316806200022857607f831692505b602080841082036200024857634e487b7160e01b86526022600452602486fd5b8180156200025f57600181146200027157620002a0565b60ff19861689528489019650620002a0565b60008a81526020902060005b86811015620002985781548b8201529085019083016200027d565b505084890196505b509498975050505050505050565b60805160a051611902620002d46000396000610a12015260006109dd01526119026000f3fe6080604052600436106101405760003560e01c80634a4fbeec116100b6578063a22cb4651161006f578063a22cb465146103c5578063b3dd4af5146103e5578063b88d4fde14610405578063c87b56dd14610425578063e985e9c514610453578063f97ec6241461048e57600080fd5b80634a4fbeec146103005780636352211e1461033057806370a0823114610350578063710a9f68146103705780637ecebe001461038357806395d89b41146103b057600080fd5b806318160ddd1161010857806318160ddd1461023a5780631aa95ddb14610250578063201318af1461028b57806323b872dd146102ab5780633644e515146102cb57806342842e0e146102e057600080fd5b806301ffc9a71461014557806306fdde031461017a578063081812fc1461019c578063092a5400146101ea578063095ea7b314610218575b600080fd5b34801561015157600080fd5b5061016561016036600461140a565b6104ae565b60405190151581526020015b60405180910390f35b34801561018657600080fd5b5061018f610500565b604051610171919061142e565b3480156101a857600080fd5b506101d26101b7366004611483565b6004602052600090815260409020546001600160a01b031681565b6040516001600160a01b039091168152602001610171565b3480156101f657600080fd5b5061020a6102053660046114b3565b61058e565b604051908152602001610171565b34801561022457600080fd5b506102386102333660046114e6565b61066a565b005b34801561024657600080fd5b5061020a60065481565b34801561025c57600080fd5b5061016561026b366004611510565b600960209081526000928352604080842090915290825290205460ff1681565b34801561029757600080fd5b506102386102a6366004611510565b610751565b3480156102b757600080fd5b506102386102c6366004611533565b610836565b3480156102d757600080fd5b5061020a6109d9565b3480156102ec57600080fd5b506102386102fb366004611533565b610a34565b34801561030c57600080fd5b5061016561031b36600461156f565b60086020526000908152604090205460ff1681565b34801561033c57600080fd5b506101d261034b366004611483565b610b2c565b34801561035c57600080fd5b5061020a61036b36600461156f565b610b83565b61023861037e3660046115d3565b610be6565b34801561038f57600080fd5b5061020a61039e36600461156f565b60076020526000908152604090205481565b3480156103bc57600080fd5b5061018f610d20565b3480156103d157600080fd5b506102386103e036600461162d565b610d2d565b3480156103f157600080fd5b50610238610400366004611510565b610d99565b34801561041157600080fd5b50610238610420366004611669565b610e78565b34801561043157600080fd5b5061018f610440366004611483565b5060408051602081019091526000815290565b34801561045f57600080fd5b5061016561046e3660046114b3565b600560209081526000928352604080842090915290825290205460ff1681565b34801561049a57600080fd5b506102386104a93660046116d8565b610f60565b60006301ffc9a760e01b6001600160e01b0319831614806104df57506380ac58cd60e01b6001600160e01b03198316145b806104fa5750635b5e139f60e01b6001600160e01b03198316145b92915050565b6000805461050d9061174b565b80601f01602080910402602001604051908101604052809291908181526020018280546105399061174b565b80156105865780601f1061055b57610100808354040283529160200191610586565b820191906000526020600020905b81548152906001019060200180831161056957829003601f168201915b505050505081565b60068054600101908190556001600160a01b03821660009081526008602052604090205460ff16156105d35760405163126518b960e21b815260040160405180910390fd5b6001600160a01b03821660008181526008602090815260408083208054600160ff199182168117909255868552600984528285209585529490925290912080549092161790556106238382611270565b80826001600160a01b0316846001600160a01b03167ffe7476280cfd157207cdf297fcfd595bd42969cc4aee410188bb4da664f8995a60405160405180910390a492915050565b6000818152600260205260409020546001600160a01b0316338114806106b357506001600160a01b038116600090815260056020908152604080832033845290915290205460ff165b6106f55760405162461bcd60e51b815260206004820152600e60248201526d1393d517d055551213d49256915160921b60448201526064015b60405180910390fd5b60008281526004602052604080822080546001600160a01b0319166001600160a01b0387811691821790925591518593918516917f8c5be1e5ebec7d5bd14f71427d1e84f3dd0314c0f7b2291e5b200ac8c7c3b92591a4505050565b6000828152600260205260409020546001600160a01b0316331461078857604051636daf24f760e01b815260040160405180910390fd5b6001600160a01b03811660009081526008602052604090205460ff16156107c25760405163126518b960e21b815260040160405180910390fd5b6001600160a01b03811660008181526008602090815260408083208054600160ff199182168117909255878552600984528285208686529093528184208054909316179091555184929133917f4f0ab7ad4dcbbc10728e86caad81a33c709ad5b2ff1b312905466fb480dc8c2e9190a45050565b6000818152600260205260409020546001600160a01b0384811691161461088c5760405162461bcd60e51b815260206004820152600a60248201526957524f4e475f46524f4d60b01b60448201526064016106ec565b6001600160a01b0382166108b25760405162461bcd60e51b81526004016106ec90611785565b336001600160a01b03841614806108ec57506001600160a01b038316600090815260056020908152604080832033845290915290205460ff165b8061090d57506000818152600460205260409020546001600160a01b031633145b61094a5760405162461bcd60e51b815260206004820152600e60248201526d1393d517d055551213d49256915160921b60448201526064016106ec565b6001600160a01b0380841660008181526003602090815260408083208054600019019055938616808352848320805460010190558583526002825284832080546001600160a01b03199081168317909155600490925284832080549092169091559251849392917fddf252ad1be2c89b69c2b068fc378daa952ba7f163c4a11628f55a4df523b3ef91a4505050565b60007f00000000000000000000000000000000000000000000000000000000000000004614610a0f57610a0a611357565b905090565b507f000000000000000000000000000000000000000000000000000000000000000090565b610a3f838383610836565b6001600160a01b0382163b1580610ae85750604051630a85bd0160e11b8082523360048301526001600160a01b03858116602484015260448301849052608060648401526000608484015290919084169063150b7a029060a4016020604051808303816000875af1158015610ab8573d6000803e3d6000fd5b505050506040513d601f19601f82011682018060405250810190610adc91906117b0565b6001600160e01b031916145b610b275760405162461bcd60e51b815260206004820152601060248201526f155394d0519157d49150d2541251539560821b60448201526064016106ec565b505050565b6000818152600260205260409020546001600160a01b031680610b7e5760405162461bcd60e51b815260206004820152600a6024820152691393d517d3525395115160b21b60448201526064016106ec565b919050565b60006001600160a01b038216610bca5760405162461bcd60e51b815260206004820152600c60248201526b5a45524f5f4144445245535360a01b60448201526064016106ec565b506001600160a01b031660009081526003602052604090205490565b6000848152600260205260409020546001600160a01b03163314610c1d57604051636daf24f760e01b815260040160405180910390fd5b60008481526009602090815260408083206001600160a01b038716845290915290205460ff16610c6057604051630eda9c3d60e31b815260040160405180910390fd5b6000836001600160a01b0316348484604051610c7d9291906117cd565b60006040518083038185875af1925050503d8060008114610cba576040519150601f19603f3d011682016040523d82523d6000602084013e610cbf565b606091505b5050905080610ce157604051633204506f60e01b815260040160405180910390fd5b60405185906001600160a01b0386169033907f0b4cc36697383317d309d87c69f1007b5928de24e0db567862e3216d0dfda78d90600090a45050505050565b6001805461050d9061174b565b3360008181526005602090815260408083206001600160a01b03871680855290835292819020805460ff191686151590811790915590519081529192917f17307eab39ab6107e8899845ad3d59bd9653f200f220920489ca2b5937696c31910160405180910390a35050565b6000828152600260205260409020546001600160a01b03163314610dd057604051636daf24f760e01b815260040160405180910390fd5b6001600160a01b03811660009081526008602052604090205460ff16610e09576040516352eee19960e11b815260040160405180910390fd5b6001600160a01b0381166000818152600860209081526040808320805460ff199081169091558684526009835281842085855290925280832080549092169091555184929133917f6132b36c315c26c8465344b9915b4555f938b7b64e8bc51c73ea148f4e4e64589190a45050565b610e83858585610836565b6001600160a01b0384163b1580610f1a5750604051630a85bd0160e11b808252906001600160a01b0386169063150b7a0290610ecb9033908a908990899089906004016117dd565b6020604051808303816000875af1158015610eea573d6000803e3d6000fd5b505050506040513d601f19601f82011682018060405250810190610f0e91906117b0565b6001600160e01b031916145b610f595760405162461bcd60e51b815260206004820152601060248201526f155394d0519157d49150d2541251539560821b60448201526064016106ec565b5050505050565b42841015610fb05760405162461bcd60e51b815260206004820152601760248201527f5045524d49545f444541444c494e455f4558504952454400000000000000000060448201526064016106ec565b6000858152600260205260409020546001600160a01b03888116911614610fea57604051636daf24f760e01b815260040160405180910390fd5b60006001610ff66109d9565b6001600160a01b038a811660008181526007602090815260409182902080546001810190915582517fcdcf9fe4d9d140e4178c96910cd50997c92865ad0528b72ab356290d78d87ed18184015280840194909452938d166060840152608083018c905260a083019390935260c08083018b90528151808403909101815260e08301909152805192019190912061190160f01b6101008301526101028201929092526101228101919091526101420160408051601f198184030181528282528051602091820120600084529083018083525260ff871690820152606081018590526080810184905260a0016020604051602081039080840390855afa158015611102573d6000803e3d6000fd5b5050604051601f1901519150506001600160a01b038116158015906111385750876001600160a01b0316816001600160a01b0316145b6111755760405162461bcd60e51b815260206004820152600e60248201526d24a72b20a624a22fa9a4a3a722a960911b60448201526064016106ec565b6001600160a01b03871661119b5760405162461bcd60e51b81526004016106ec90611785565b506001600160a01b0380881660008181526003602090815260408083208054600019019055938a16808352848320805460010190558983526002825284832080546001600160a01b03199081168317909155600490925284832080549092169091559251889392917fddf252ad1be2c89b69c2b068fc378daa952ba7f163c4a11628f55a4df523b3ef91a484866001600160a01b0316886001600160a01b03167f0515bc9af6d1d580f4708beec45787f7f2e5076b8a56c8d4af880cb1552fdc7a60405160405180910390a450505050505050565b6001600160a01b0382166112965760405162461bcd60e51b81526004016106ec90611785565b6000818152600260205260409020546001600160a01b0316156112ec5760405162461bcd60e51b815260206004820152600e60248201526d1053149150511657d3525395115160921b60448201526064016106ec565b6001600160a01b038216600081815260036020908152604080832080546001019055848352600290915280822080546001600160a01b0319168417905551839291907fddf252ad1be2c89b69c2b068fc378daa952ba7f163c4a11628f55a4df523b3ef908290a45050565b60007f8b73c3c69bb8fe3d512ecc4cf759cc79239f7b179b0ffacaa9a75d522b39400f60006040516113899190611831565b6040805191829003822060208301939093528101919091527fc89efdaa54c0f20c7adf612882df0950f5a951637e0307cdcb4c672f298b8bc660608201524660808201523060a082015260c00160405160208183030381529060405280519060200120905090565b6001600160e01b03198116811461140757600080fd5b50565b60006020828403121561141c57600080fd5b8135611427816113f1565b9392505050565b600060208083528351808285015260005b8181101561145b5785810183015185820160400152820161143f565b8181111561146d576000604083870101525b50601f01601f1916929092016040019392505050565b60006020828403121561149557600080fd5b5035919050565b80356001600160a01b0381168114610b7e57600080fd5b600080604083850312156114c657600080fd5b6114cf8361149c565b91506114dd6020840161149c565b90509250929050565b600080604083850312156114f957600080fd5b6115028361149c565b946020939093013593505050565b6000806040838503121561152357600080fd5b823591506114dd6020840161149c565b60008060006060848603121561154857600080fd5b6115518461149c565b925061155f6020850161149c565b9150604084013590509250925092565b60006020828403121561158157600080fd5b6114278261149c565b60008083601f84011261159c57600080fd5b50813567ffffffffffffffff8111156115b457600080fd5b6020830191508360208285010111156115cc57600080fd5b9250929050565b600080600080606085870312156115e957600080fd5b843593506115f96020860161149c565b9250604085013567ffffffffffffffff81111561161557600080fd5b6116218782880161158a565b95989497509550505050565b6000806040838503121561164057600080fd5b6116498361149c565b91506020830135801515811461165e57600080fd5b809150509250929050565b60008060008060006080868803121561168157600080fd5b61168a8661149c565b94506116986020870161149c565b935060408601359250606086013567ffffffffffffffff8111156116bb57600080fd5b6116c78882890161158a565b969995985093965092949392505050565b600080600080600080600060e0888a0312156116f357600080fd5b6116fc8861149c565b965061170a6020890161149c565b95506040880135945060608801359350608088013560ff8116811461172e57600080fd5b9699959850939692959460a0840135945060c09093013592915050565b600181811c9082168061175f57607f821691505b60208210810361177f57634e487b7160e01b600052602260045260246000fd5b50919050565b6020808252601190820152701253959053125117d49150d25412515395607a1b604082015260600190565b6000602082840312156117c257600080fd5b8151611427816113f1565b8183823760009101908152919050565b6001600160a01b038681168252851660208201526040810184905260806060820181905281018290526000828460a0840137600060a0848401015260a0601f19601f85011683010190509695505050505050565b600080835481600182811c91508083168061184d57607f831692505b6020808410820361186c57634e487b7160e01b86526022600452602486fd5b8180156118805760018114611891576118be565b60ff198616895284890196506118be565b60008a81526020902060005b868110156118b65781548b82015290850190830161189d565b505084890196505b50949897505050505050505056fea2646970667358221220f20a014744768396577ed7ba028ea98441e8492248d587a55528f5eb18b333bd64736f6c634300080d0033",
    "linkReferences": {}
  }
}