{
  "abi": [
    {
      "inputs": [],
      "stateMutability": "nonpayable",
      "type": "constructor"
    },
    {
      "inputs": [],
      "name": "CallFailed",
      "type": "error"
    },
    {
      "inputs": [],
      "name": "InvalidKey",
      "type": "error"
    },
    {
      "inputs": [],
      "name": "MissingKey",
      "type": "error"
    },
    {
      "anonymous": false,
      "inputs": [
        {
          "indexed": true,
          "internalType": "address",
          "name": "owner",
          "type": "address"
        },
        {
          "indexed": true,
          "internalType": "address",
          "name": "spender",
          "type": "address"
        },
        {
          "indexed": true,
          "internalType": "uint256",
          "name": "id",
          "type": "uint256"
        }
      ],
      "name": "Approval",
      "type": "event"
    },
    {
      "anonymous": false,
      "inputs": [
        {
          "indexed": true,
          "internalType": "address",
          "name": "owner",
          "type": "address"
        },
        {
          "indexed": true,
          "internalType": "address",
          "name": "operator",
          "type": "address"
        },
        {
          "indexed": false,
          "internalType": "bool",
          "name": "approved",
          "type": "bool"
        }
      ],
      "name": "ApprovalForAll",
      "type": "event"
    },
    {
      "anonymous": false,
      "inputs": [
        {
          "indexed": true,
          "internalType": "address",
          "name": "owner",
          "type": "address"
        },
        {
          "indexed": true,
          "internalType": "address",
          "name": "door",
          "type": "address"
        },
        {
          "indexed": true,
          "internalType": "uint256",
          "name": "key",
          "type": "uint256"
        }
      ],
      "name": "KeyCreated",
      "type": "event"
    },
    {
      "anonymous": false,
      "inputs": [
        {
          "indexed": true,
          "internalType": "address",
          "name": "owner",
          "type": "address"
        },
        {
          "indexed": true,
          "internalType": "address",
          "name": "newOwner",
          "type": "address"
        },
        {
          "indexed": true,
          "internalType": "uint256",
          "name": "key",
          "type": "uint256"
        }
      ],
      "name": "KeyRecovered",
      "type": "event"
    },
    {
      "anonymous": false,
      "inputs": [
        {
          "indexed": true,
          "internalType": "address",
          "name": "owner",
          "type": "address"
        },
        {
          "indexed": true,
          "internalType": "address",
          "name": "door",
          "type": "address"
        },
        {
          "indexed": true,
          "internalType": "uint256",
          "name": "key",
          "type": "uint256"
        }
      ],
      "name": "KeyUsed",
      "type": "event"
    },
    {
      "anonymous": false,
      "inputs": [
        {
          "indexed": true,
          "internalType": "address",
          "name": "owner",
          "type": "address"
        },
        {
          "indexed": true,
          "internalType": "address",
          "name": "door",
          "type": "address"
        },
        {
          "indexed": true,
          "internalType": "uint256",
          "name": "key",
          "type": "uint256"
        }
      ],
      "name": "LockCreated",
      "type": "event"
    },
    {
      "anonymous": false,
      "inputs": [
        {
          "indexed": true,
          "internalType": "address",
          "name": "from",
          "type": "address"
        },
        {
          "indexed": true,
          "internalType": "address",
          "name": "to",
          "type": "address"
        },
        {
          "indexed": true,
          "internalType": "uint256",
          "name": "id",
          "type": "uint256"
        }
      ],
      "name": "Transfer",
      "type": "event"
    },
    {
      "inputs": [],
      "name": "DOMAIN_SEPARATOR",
      "outputs": [
        {
          "internalType": "bytes32",
          "name": "",
          "type": "bytes32"
        }
      ],
      "stateMutability": "view",
      "type": "function"
    },
    {
      "inputs": [
        {
          "internalType": "address",
          "name": "spender",
          "type": "address"
        },
        {
          "internalType": "uint256",
          "name": "id",
          "type": "uint256"
        }
      ],
      "name": "approve",
      "outputs": [],
      "stateMutability": "nonpayable",
      "type": "function"
    },
    {
      "inputs": [
        {
          "internalType": "address",
          "name": "owner",
          "type": "address"
        }
      ],
      "name": "balanceOf",
      "outputs": [
        {
          "internalType": "uint256",
          "name": "",
          "type": "uint256"
        }
      ],
      "stateMutability": "view",
      "type": "function"
    },
    {
      "inputs": [
        {
          "internalType": "address",
          "name": "to",
          "type": "address"
        },
        {
          "internalType": "address",
          "name": "door",
          "type": "address"
        }
      ],
      "name": "createKey",
      "outputs": [
        {
          "internalType": "uint256",
          "name": "key",
          "type": "uint256"
        }
      ],
      "stateMutability": "nonpayable",
      "type": "function"
    },
    {
      "inputs": [
        {
          "internalType": "uint256",
          "name": "key",
          "type": "uint256"
        },
        {
          "internalType": "address",
          "name": "door",
          "type": "address"
        }
      ],
      "name": "createLock",
      "outputs": [],
      "stateMutability": "nonpayable",
      "type": "function"
    },
    {
      "inputs": [
        {
          "internalType": "uint256",
          "name": "",
          "type": "uint256"
        },
        {
          "internalType": "address",
          "name": "",
          "type": "address"
        }
      ],
      "name": "doesKeyFit",
      "outputs": [
        {
          "internalType": "bool",
          "name": "",
          "type": "bool"
        }
      ],
      "stateMutability": "view",
      "type": "function"
    },
    {
      "inputs": [
        {
          "internalType": "uint256",
          "name": "key",
          "type": "uint256"
        },
        {
          "internalType": "address",
          "name": "door",
          "type": "address"
        },
        {
          "internalType": "bytes",
          "name": "data",
          "type": "bytes"
        }
      ],
      "name": "execute",
      "outputs": [],
      "stateMutability": "payable",
      "type": "function"
    },
    {
      "inputs": [
        {
          "internalType": "uint256",
          "name": "",
          "type": "uint256"
        }
      ],
      "name": "getApproved",
      "outputs": [
        {
          "internalType": "address",
          "name": "",
          "type": "address"
        }
      ],
      "stateMutability": "view",
      "type": "function"
    },
    {
      "inputs": [
        {
          "internalType": "address",
          "name": "",
          "type": "address"
        },
        {
          "internalType": "address",
          "name": "",
          "type": "address"
        }
      ],
      "name": "isApprovedForAll",
      "outputs": [
        {
          "internalType": "bool",
          "name": "",
          "type": "bool"
        }
      ],
      "stateMutability": "view",
      "type": "function"
    },
    {
      "inputs": [],
      "name": "name",
      "outputs": [
        {
          "internalType": "string",
          "name": "",
          "type": "string"
        }
      ],
      "stateMutability": "view",
      "type": "function"
    },
    {
      "inputs": [
        {
          "internalType": "address",
          "name": "",
          "type": "address"
        }
      ],
      "name": "nonces",
      "outputs": [
        {
          "internalType": "uint256",
          "name": "",
          "type": "uint256"
        }
      ],
      "stateMutability": "view",
      "type": "function"
    },
    {
      "inputs": [
        {
          "internalType": "uint256",
          "name": "id",
          "type": "uint256"
        }
      ],
      "name": "ownerOf",
      "outputs": [
        {
          "internalType": "address",
          "name": "owner",
          "type": "address"
        }
      ],
      "stateMutability": "view",
      "type": "function"
    },
    {
      "inputs": [
        {
          "internalType": "address",
          "name": "owner",
          "type": "address"
        },
        {
          "internalType": "address",
          "name": "newOwner",
          "type": "address"
        },
        {
          "internalType": "uint256",
          "name": "key",
          "type": "uint256"
        },
        {
          "internalType": "uint256",
          "name": "deadline",
          "type": "uint256"
        },
        {
          "internalType": "uint8",
          "name": "v",
          "type": "uint8"
        },
        {
          "internalType": "bytes32",
          "name": "r",
          "type": "bytes32"
        },
        {
          "internalType": "bytes32",
          "name": "s",
          "type": "bytes32"
        }
      ],
      "name": "recover",
      "outputs": [],
      "stateMutability": "nonpayable",
      "type": "function"
    },
    {
      "inputs": [
        {
          "internalType": "address",
          "name": "from",
          "type": "address"
        },
        {
          "internalType": "address",
          "name": "to",
          "type": "address"
        },
        {
          "internalType": "uint256",
          "name": "id",
          "type": "uint256"
        }
      ],
      "name": "safeTransferFrom",
      "outputs": [],
      "stateMutability": "nonpayable",
      "type": "function"
    },
    {
      "inputs": [
        {
          "internalType": "address",
          "name": "from",
          "type": "address"
        },
        {
          "internalType": "address",
          "name": "to",
          "type": "address"
        },
        {
          "internalType": "uint256",
          "name": "id",
          "type": "uint256"
        },
        {
          "internalType": "bytes",
          "name": "data",
          "type": "bytes"
        }
      ],
      "name": "safeTransferFrom",
      "outputs": [],
      "stateMutability": "nonpayable",
      "type": "function"
    },
    {
      "inputs": [
        {
          "internalType": "address",
          "name": "operator",
          "type": "address"
        },
        {
          "internalType": "bool",
          "name": "approved",
          "type": "bool"
        }
      ],
      "name": "setApprovalForAll",
      "outputs": [],
      "stateMutability": "nonpayable",
      "type": "function"
    },
    {
      "inputs": [
        {
          "internalType": "bytes4",
          "name": "interfaceId",
          "type": "bytes4"
        }
      ],
      "name": "supportsInterface",
      "outputs": [
        {
          "internalType": "bool",
          "name": "",
          "type": "bool"
        }
      ],
      "stateMutability": "view",
      "type": "function"
    },
    {
      "inputs": [],
      "name": "symbol",
      "outputs": [
        {
          "internalType": "string",
          "name": "",
          "type": "string"
        }
      ],
      "stateMutability": "view",
      "type": "function"
    },
    {
      "inputs": [
        {
          "internalType": "uint256",
          "name": "id",
          "type": "uint256"
        }
      ],
      "name": "tokenURI",
      "outputs": [
        {
          "internalType": "string",
          "name": "",
          "type": "string"
        }
      ],
      "stateMutability": "view",
      "type": "function"
    },
    {
      "inputs": [],
      "name": "totalSupply",
      "outputs": [
        {
          "internalType": "uint256",
          "name": "",
          "type": "uint256"
        }
      ],
      "stateMutability": "view",
      "type": "function"
    },
    {
      "inputs": [
        {
          "internalType": "address",
          "name": "from",
          "type": "address"
        },
        {
          "internalType": "address",
          "name": "to",
          "type": "address"
        },
        {
          "internalType": "uint256",
          "name": "id",
          "type": "uint256"
        }
      ],
      "name": "transferFrom",
      "outputs": [],
      "stateMutability": "nonpayable",
      "type": "function"
    }
  ],
  "bytecode": {
    "object": "0x60c06040523480156200001157600080fd5b50604080518082018252600881526725b2bcb1b430b4b760c11b6020808301918252835180850190945260038452624b455960e81b9084015281519192916200005d9160009162000129565b5080516200007390600190602084019062000129565b50504660805250620000846200008d565b60a052620002ae565b60007f8b73c3c69bb8fe3d512ecc4cf759cc79239f7b179b0ffacaa9a75d522b39400f6000604051620000c191906200020b565b6040805191829003822060208301939093528101919091527fc89efdaa54c0f20c7adf612882df0950f5a951637e0307cdcb4c672f298b8bc660608201524660808201523060a082015260c00160405160208183030381529060405280519060200120905090565b8280546200013790620001cf565b90600052602060002090601f0160209004810192826200015b5760008555620001a6565b82601f106200017657805160ff1916838001178555620001a6565b82800160010185558215620001a6579182015b82811115620001a657825182559160200191906001019062000189565b50620001b4929150620001b8565b5090565b5b80821115620001b45760008155600101620001b9565b600181811c90821680620001e457607f821691505b6020821081036200020557634e487b7160e01b600052602260045260246000fd5b50919050565b600080835481600182811c9150808316806200022857607f831692505b602080841082036200024857634e487b7160e01b86526022600452602486fd5b8180156200025f57600181146200027157620002a0565b60ff19861689528489019650620002a0565b60008a81526020902060005b86811015620002985781548b8201529085019083016200027d565b505084890196505b509498975050505050505050565b60805160a051611709620002d460003960006108f8015260006108c301526117096000f3fe60806040526004361061012a5760003560e01c806342842e0e116100ab57806395d89b411161006f57806395d89b411461036a578063a22cb4651461037f578063b88d4fde1461039f578063c87b56dd146103bf578063e985e9c5146103ed578063f97ec6241461042857600080fd5b806342842e0e146102ca5780636352211e146102ea57806370a082311461030a578063710a9f681461032a5780637ecebe001461033d57600080fd5b806318160ddd116100f257806318160ddd146102245780631aa95ddb1461023a578063201318af1461027557806323b872dd146102955780633644e515146102b557600080fd5b806301ffc9a71461012f57806306fdde0314610164578063081812fc14610186578063092a5400146101d4578063095ea7b314610202575b600080fd5b34801561013b57600080fd5b5061014f61014a366004611211565b610448565b60405190151581526020015b60405180910390f35b34801561017057600080fd5b5061017961049a565b60405161015b9190611235565b34801561019257600080fd5b506101bc6101a136600461128a565b6004602052600090815260409020546001600160a01b031681565b6040516001600160a01b03909116815260200161015b565b3480156101e057600080fd5b506101f46101ef3660046112ba565b610528565b60405190815260200161015b565b34801561020e57600080fd5b5061022261021d3660046112ed565b6105a0565b005b34801561023057600080fd5b506101f460065481565b34801561024657600080fd5b5061014f610255366004611317565b600860209081526000928352604080842090915290825290205460ff1681565b34801561028157600080fd5b50610222610290366004611317565b610687565b3480156102a157600080fd5b506102226102b036600461133a565b61071c565b3480156102c157600080fd5b506101f46108bf565b3480156102d657600080fd5b506102226102e536600461133a565b61091a565b3480156102f657600080fd5b506101bc61030536600461128a565b610a12565b34801561031657600080fd5b506101f4610325366004611376565b610a69565b6102226103383660046113da565b610acc565b34801561034957600080fd5b506101f4610358366004611376565b60076020526000908152604090205481565b34801561037657600080fd5b50610179610c06565b34801561038b57600080fd5b5061022261039a366004611434565b610c13565b3480156103ab57600080fd5b506102226103ba366004611470565b610c7f565b3480156103cb57600080fd5b506101796103da36600461128a565b5060408051602081019091526000815290565b3480156103f957600080fd5b5061014f6104083660046112ba565b600560209081526000928352604080842090915290825290205460ff1681565b34801561043457600080fd5b506102226104433660046114df565b610d67565b60006301ffc9a760e01b6001600160e01b03198316148061047957506380ac58cd60e01b6001600160e01b03198316145b806104945750635b5e139f60e01b6001600160e01b03198316145b92915050565b600080546104a790611552565b80601f01602080910402602001604051908101604052809291908181526020018280546104d390611552565b80156105205780601f106104f557610100808354040283529160200191610520565b820191906000526020600020905b81548152906001019060200180831161050357829003601f168201915b505050505081565b600680546001019081905561053d8382611077565b60008181526008602090815260408083206001600160a01b0380871680865291909352818420805460ff191660011790559051849391928716917ffe7476280cfd157207cdf297fcfd595bd42969cc4aee410188bb4da664f8995a91a492915050565b6000818152600260205260409020546001600160a01b0316338114806105e957506001600160a01b038116600090815260056020908152604080832033845290915290205460ff165b61062b5760405162461bcd60e51b815260206004820152600e60248201526d1393d517d055551213d49256915160921b60448201526064015b60405180910390fd5b60008281526004602052604080822080546001600160a01b0319166001600160a01b0387811691821790925591518593918516917f8c5be1e5ebec7d5bd14f71427d1e84f3dd0314c0f7b2291e5b200ac8c7c3b92591a4505050565b61069082610a12565b6001600160a01b0316336001600160a01b0316146106c157604051636daf24f760e01b815260040160405180910390fd5b60008281526008602090815260408083206001600160a01b0385168085529252808320805460ff1916600117905551849233917f4f0ab7ad4dcbbc10728e86caad81a33c709ad5b2ff1b312905466fb480dc8c2e9190a45050565b6000818152600260205260409020546001600160a01b038481169116146107725760405162461bcd60e51b815260206004820152600a60248201526957524f4e475f46524f4d60b01b6044820152606401610622565b6001600160a01b0382166107985760405162461bcd60e51b81526004016106229061158c565b336001600160a01b03841614806107d257506001600160a01b038316600090815260056020908152604080832033845290915290205460ff165b806107f357506000818152600460205260409020546001600160a01b031633145b6108305760405162461bcd60e51b815260206004820152600e60248201526d1393d517d055551213d49256915160921b6044820152606401610622565b6001600160a01b0380841660008181526003602090815260408083208054600019019055938616808352848320805460010190558583526002825284832080546001600160a01b03199081168317909155600490925284832080549092169091559251849392917fddf252ad1be2c89b69c2b068fc378daa952ba7f163c4a11628f55a4df523b3ef91a4505050565b60007f000000000000000000000000000000000000000000000000000000000000000046146108f5576108f061115e565b905090565b507f000000000000000000000000000000000000000000000000000000000000000090565b61092583838361071c565b6001600160a01b0382163b15806109ce5750604051630a85bd0160e11b8082523360048301526001600160a01b03858116602484015260448301849052608060648401526000608484015290919084169063150b7a029060a4016020604051808303816000875af115801561099e573d6000803e3d6000fd5b505050506040513d601f19601f820116820180604052508101906109c291906115b7565b6001600160e01b031916145b610a0d5760405162461bcd60e51b815260206004820152601060248201526f155394d0519157d49150d2541251539560821b6044820152606401610622565b505050565b6000818152600260205260409020546001600160a01b031680610a645760405162461bcd60e51b815260206004820152600a6024820152691393d517d3525395115160b21b6044820152606401610622565b919050565b60006001600160a01b038216610ab05760405162461bcd60e51b815260206004820152600c60248201526b5a45524f5f4144445245535360a01b6044820152606401610622565b506001600160a01b031660009081526003602052604090205490565b6000848152600260205260409020546001600160a01b03163314610b0357604051636daf24f760e01b815260040160405180910390fd5b60008481526008602090815260408083206001600160a01b038716845290915290205460ff16610b4657604051630eda9c3d60e31b815260040160405180910390fd5b6000836001600160a01b0316348484604051610b639291906115d4565b60006040518083038185875af1925050503d8060008114610ba0576040519150601f19603f3d011682016040523d82523d6000602084013e610ba5565b606091505b5050905080610bc757604051633204506f60e01b815260040160405180910390fd5b60405185906001600160a01b0386169033907f0b4cc36697383317d309d87c69f1007b5928de24e0db567862e3216d0dfda78d90600090a45050505050565b600180546104a790611552565b3360008181526005602090815260408083206001600160a01b03871680855290835292819020805460ff191686151590811790915590519081529192917f17307eab39ab6107e8899845ad3d59bd9653f200f220920489ca2b5937696c31910160405180910390a35050565b610c8a85858561071c565b6001600160a01b0384163b1580610d215750604051630a85bd0160e11b808252906001600160a01b0386169063150b7a0290610cd29033908a908990899089906004016115e4565b6020604051808303816000875af1158015610cf1573d6000803e3d6000fd5b505050506040513d601f19601f82011682018060405250810190610d1591906115b7565b6001600160e01b031916145b610d605760405162461bcd60e51b815260206004820152601060248201526f155394d0519157d49150d2541251539560821b6044820152606401610622565b5050505050565b42841015610db75760405162461bcd60e51b815260206004820152601760248201527f5045524d49545f444541444c494e455f455850495245440000000000000000006044820152606401610622565b6000858152600260205260409020546001600160a01b03888116911614610df157604051636daf24f760e01b815260040160405180910390fd5b60006001610dfd6108bf565b6001600160a01b038a811660008181526007602090815260409182902080546001810190915582517fcdcf9fe4d9d140e4178c96910cd50997c92865ad0528b72ab356290d78d87ed18184015280840194909452938d166060840152608083018c905260a083019390935260c08083018b90528151808403909101815260e08301909152805192019190912061190160f01b6101008301526101028201929092526101228101919091526101420160408051601f198184030181528282528051602091820120600084529083018083525260ff871690820152606081018590526080810184905260a0016020604051602081039080840390855afa158015610f09573d6000803e3d6000fd5b5050604051601f1901519150506001600160a01b03811615801590610f3f5750876001600160a01b0316816001600160a01b0316145b610f7c5760405162461bcd60e51b815260206004820152600e60248201526d24a72b20a624a22fa9a4a3a722a960911b6044820152606401610622565b6001600160a01b038716610fa25760405162461bcd60e51b81526004016106229061158c565b506001600160a01b0380881660008181526003602090815260408083208054600019019055938a16808352848320805460010190558983526002825284832080546001600160a01b03199081168317909155600490925284832080549092169091559251889392917fddf252ad1be2c89b69c2b068fc378daa952ba7f163c4a11628f55a4df523b3ef91a484866001600160a01b0316886001600160a01b03167f0515bc9af6d1d580f4708beec45787f7f2e5076b8a56c8d4af880cb1552fdc7a60405160405180910390a450505050505050565b6001600160a01b03821661109d5760405162461bcd60e51b81526004016106229061158c565b6000818152600260205260409020546001600160a01b0316156110f35760405162461bcd60e51b815260206004820152600e60248201526d1053149150511657d3525395115160921b6044820152606401610622565b6001600160a01b038216600081815260036020908152604080832080546001019055848352600290915280822080546001600160a01b0319168417905551839291907fddf252ad1be2c89b69c2b068fc378daa952ba7f163c4a11628f55a4df523b3ef908290a45050565b60007f8b73c3c69bb8fe3d512ecc4cf759cc79239f7b179b0ffacaa9a75d522b39400f60006040516111909190611638565b6040805191829003822060208301939093528101919091527fc89efdaa54c0f20c7adf612882df0950f5a951637e0307cdcb4c672f298b8bc660608201524660808201523060a082015260c00160405160208183030381529060405280519060200120905090565b6001600160e01b03198116811461120e57600080fd5b50565b60006020828403121561122357600080fd5b813561122e816111f8565b9392505050565b600060208083528351808285015260005b8181101561126257858101830151858201604001528201611246565b81811115611274576000604083870101525b50601f01601f1916929092016040019392505050565b60006020828403121561129c57600080fd5b5035919050565b80356001600160a01b0381168114610a6457600080fd5b600080604083850312156112cd57600080fd5b6112d6836112a3565b91506112e4602084016112a3565b90509250929050565b6000806040838503121561130057600080fd5b611309836112a3565b946020939093013593505050565b6000806040838503121561132a57600080fd5b823591506112e4602084016112a3565b60008060006060848603121561134f57600080fd5b611358846112a3565b9250611366602085016112a3565b9150604084013590509250925092565b60006020828403121561138857600080fd5b61122e826112a3565b60008083601f8401126113a357600080fd5b50813567ffffffffffffffff8111156113bb57600080fd5b6020830191508360208285010111156113d357600080fd5b9250929050565b600080600080606085870312156113f057600080fd5b84359350611400602086016112a3565b9250604085013567ffffffffffffffff81111561141c57600080fd5b61142887828801611391565b95989497509550505050565b6000806040838503121561144757600080fd5b611450836112a3565b91506020830135801515811461146557600080fd5b809150509250929050565b60008060008060006080868803121561148857600080fd5b611491866112a3565b945061149f602087016112a3565b935060408601359250606086013567ffffffffffffffff8111156114c257600080fd5b6114ce88828901611391565b969995985093965092949392505050565b600080600080600080600060e0888a0312156114fa57600080fd5b611503886112a3565b9650611511602089016112a3565b95506040880135945060608801359350608088013560ff8116811461153557600080fd5b9699959850939692959460a0840135945060c09093013592915050565b600181811c9082168061156657607f821691505b60208210810361158657634e487b7160e01b600052602260045260246000fd5b50919050565b6020808252601190820152701253959053125117d49150d25412515395607a1b604082015260600190565b6000602082840312156115c957600080fd5b815161122e816111f8565b8183823760009101908152919050565b6001600160a01b038681168252851660208201526040810184905260806060820181905281018290526000828460a0840137600060a0848401015260a0601f19601f85011683010190509695505050505050565b600080835481600182811c91508083168061165457607f831692505b6020808410820361167357634e487b7160e01b86526022600452602486fd5b8180156116875760018114611698576116c5565b60ff198616895284890196506116c5565b60008a81526020902060005b868110156116bd5781548b8201529085019083016116a4565b505084890196505b50949897505050505050505056fea26469706673582212202d4768958730d2eb10e652c88defae46c8a37c3c0204dd2af9f840e00f0f014064736f6c634300080d0033",
    "linkReferences": {}
  }
}