{
  "abi": [
    {
      "inputs": [],
      "stateMutability": "nonpayable",
      "type": "constructor"
    },
    {
      "inputs": [],
      "name": "CallFailed",
      "type": "error"
    },
    {
      "inputs": [],
      "name": "DoorLocked",
      "type": "error"
    },
    {
      "inputs": [],
      "name": "DoorUnlocked",
      "type": "error"
    },
    {
      "inputs": [],
      "name": "InvalidKey",
      "type": "error"
    },
    {
      "inputs": [],
      "name": "MissingKey",
      "type": "error"
    },
    {
      "anonymous": false,
      "inputs": [
        {
          "indexed": true,
          "internalType": "address",
          "name": "owner",
          "type": "address"
        },
        {
          "indexed": true,
          "internalType": "address",
          "name": "spender",
          "type": "address"
        },
        {
          "indexed": true,
          "internalType": "uint256",
          "name": "id",
          "type": "uint256"
        }
      ],
      "name": "Approval",
      "type": "event"
    },
    {
      "anonymous": false,
      "inputs": [
        {
          "indexed": true,
          "internalType": "address",
          "name": "owner",
          "type": "address"
        },
        {
          "indexed": true,
          "internalType": "address",
          "name": "operator",
          "type": "address"
        },
        {
          "indexed": false,
          "internalType": "bool",
          "name": "approved",
          "type": "bool"
        }
      ],
      "name": "ApprovalForAll",
      "type": "event"
    },
    {
      "anonymous": false,
      "inputs": [
        {
          "indexed": true,
          "internalType": "address",
          "name": "owner",
          "type": "address"
        },
        {
          "indexed": true,
          "internalType": "address",
          "name": "door",
          "type": "address"
        },
        {
          "indexed": true,
          "internalType": "uint256",
          "name": "key",
          "type": "uint256"
        }
      ],
      "name": "KeyCreated",
      "type": "event"
    },
    {
      "anonymous": false,
      "inputs": [
        {
          "indexed": true,
          "internalType": "address",
          "name": "owner",
          "type": "address"
        },
        {
          "indexed": true,
          "internalType": "address",
          "name": "newOwner",
          "type": "address"
        },
        {
          "indexed": true,
          "internalType": "uint256",
          "name": "key",
          "type": "uint256"
        }
      ],
      "name": "KeyRecovered",
      "type": "event"
    },
    {
      "anonymous": false,
      "inputs": [
        {
          "indexed": true,
          "internalType": "address",
          "name": "owner",
          "type": "address"
        },
        {
          "indexed": true,
          "internalType": "address",
          "name": "door",
          "type": "address"
        },
        {
          "indexed": true,
          "internalType": "uint256",
          "name": "key",
          "type": "uint256"
        }
      ],
      "name": "KeyUsed",
      "type": "event"
    },
    {
      "anonymous": false,
      "inputs": [
        {
          "indexed": true,
          "internalType": "address",
          "name": "owner",
          "type": "address"
        },
        {
          "indexed": true,
          "internalType": "address",
          "name": "door",
          "type": "address"
        },
        {
          "indexed": true,
          "internalType": "uint256",
          "name": "key",
          "type": "uint256"
        }
      ],
      "name": "LockCreated",
      "type": "event"
    },
    {
      "anonymous": false,
      "inputs": [
        {
          "indexed": true,
          "internalType": "address",
          "name": "owner",
          "type": "address"
        },
        {
          "indexed": true,
          "internalType": "address",
          "name": "door",
          "type": "address"
        },
        {
          "indexed": true,
          "internalType": "uint256",
          "name": "key",
          "type": "uint256"
        }
      ],
      "name": "LockDestroyed",
      "type": "event"
    },
    {
      "anonymous": false,
      "inputs": [
        {
          "indexed": true,
          "internalType": "address",
          "name": "from",
          "type": "address"
        },
        {
          "indexed": true,
          "internalType": "address",
          "name": "to",
          "type": "address"
        },
        {
          "indexed": true,
          "internalType": "uint256",
          "name": "id",
          "type": "uint256"
        }
      ],
      "name": "Transfer",
      "type": "event"
    },
    {
      "inputs": [],
      "name": "DOMAIN_SEPARATOR",
      "outputs": [
        {
          "internalType": "bytes32",
          "name": "",
          "type": "bytes32"
        }
      ],
      "stateMutability": "view",
      "type": "function"
    },
    {
      "inputs": [
        {
          "internalType": "address",
          "name": "spender",
          "type": "address"
        },
        {
          "internalType": "uint256",
          "name": "id",
          "type": "uint256"
        }
      ],
      "name": "approve",
      "outputs": [],
      "stateMutability": "nonpayable",
      "type": "function"
    },
    {
      "inputs": [
        {
          "internalType": "address",
          "name": "owner",
          "type": "address"
        }
      ],
      "name": "balanceOf",
      "outputs": [
        {
          "internalType": "uint256",
          "name": "",
          "type": "uint256"
        }
      ],
      "stateMutability": "view",
      "type": "function"
    },
    {
      "inputs": [
        {
          "internalType": "address",
          "name": "to",
          "type": "address"
        },
        {
          "internalType": "address",
          "name": "door",
          "type": "address"
        }
      ],
      "name": "createKey",
      "outputs": [
        {
          "internalType": "uint256",
          "name": "key",
          "type": "uint256"
        }
      ],
      "stateMutability": "nonpayable",
      "type": "function"
    },
    {
      "inputs": [
        {
          "internalType": "uint256",
          "name": "key",
          "type": "uint256"
        },
        {
          "internalType": "address",
          "name": "door",
          "type": "address"
        }
      ],
      "name": "createLock",
      "outputs": [],
      "stateMutability": "nonpayable",
      "type": "function"
    },
    {
      "inputs": [
        {
          "internalType": "uint256",
          "name": "key",
          "type": "uint256"
        },
        {
          "internalType": "address",
          "name": "door",
          "type": "address"
        }
      ],
      "name": "destroyLock",
      "outputs": [],
      "stateMutability": "nonpayable",
      "type": "function"
    },
    {
      "inputs": [
        {
          "internalType": "uint256",
          "name": "",
          "type": "uint256"
        },
        {
          "internalType": "address",
          "name": "",
          "type": "address"
        }
      ],
      "name": "doesKeyFit",
      "outputs": [
        {
          "internalType": "bool",
          "name": "",
          "type": "bool"
        }
      ],
      "stateMutability": "view",
      "type": "function"
    },
    {
      "inputs": [
        {
          "internalType": "uint256",
          "name": "key",
          "type": "uint256"
        },
        {
          "internalType": "address",
          "name": "door",
          "type": "address"
        },
        {
          "internalType": "bytes",
          "name": "data",
          "type": "bytes"
        }
      ],
      "name": "execute",
      "outputs": [],
      "stateMutability": "payable",
      "type": "function"
    },
    {
      "inputs": [
        {
          "internalType": "uint256",
          "name": "",
          "type": "uint256"
        }
      ],
      "name": "getApproved",
      "outputs": [
        {
          "internalType": "address",
          "name": "",
          "type": "address"
        }
      ],
      "stateMutability": "view",
      "type": "function"
    },
    {
      "inputs": [
        {
          "internalType": "address",
          "name": "",
          "type": "address"
        },
        {
          "internalType": "address",
          "name": "",
          "type": "address"
        }
      ],
      "name": "isApprovedForAll",
      "outputs": [
        {
          "internalType": "bool",
          "name": "",
          "type": "bool"
        }
      ],
      "stateMutability": "view",
      "type": "function"
    },
    {
      "inputs": [
        {
          "internalType": "address",
          "name": "",
          "type": "address"
        }
      ],
      "name": "isLocked",
      "outputs": [
        {
          "internalType": "bool",
          "name": "",
          "type": "bool"
        }
      ],
      "stateMutability": "view",
      "type": "function"
    },
    {
      "inputs": [
        {
          "internalType": "bytes[]",
          "name": "data",
          "type": "bytes[]"
        }
      ],
      "name": "multicall",
      "outputs": [
        {
          "internalType": "bytes[]",
          "name": "results",
          "type": "bytes[]"
        }
      ],
      "stateMutability": "payable",
      "type": "function"
    },
    {
      "inputs": [],
      "name": "name",
      "outputs": [
        {
          "internalType": "string",
          "name": "",
          "type": "string"
        }
      ],
      "stateMutability": "view",
      "type": "function"
    },
    {
      "inputs": [
        {
          "internalType": "uint256",
          "name": "",
          "type": "uint256"
        }
      ],
      "name": "nonces",
      "outputs": [
        {
          "internalType": "uint256",
          "name": "",
          "type": "uint256"
        }
      ],
      "stateMutability": "view",
      "type": "function"
    },
    {
      "inputs": [
        {
          "internalType": "uint256",
          "name": "id",
          "type": "uint256"
        }
      ],
      "name": "ownerOf",
      "outputs": [
        {
          "internalType": "address",
          "name": "owner",
          "type": "address"
        }
      ],
      "stateMutability": "view",
      "type": "function"
    },
    {
      "inputs": [
        {
          "internalType": "address",
          "name": "spender",
          "type": "address"
        },
        {
          "internalType": "uint256",
          "name": "key",
          "type": "uint256"
        },
        {
          "internalType": "uint256",
          "name": "deadline",
          "type": "uint256"
        },
        {
          "internalType": "uint8",
          "name": "v",
          "type": "uint8"
        },
        {
          "internalType": "bytes32",
          "name": "r",
          "type": "bytes32"
        },
        {
          "internalType": "bytes32",
          "name": "s",
          "type": "bytes32"
        }
      ],
      "name": "permit",
      "outputs": [],
      "stateMutability": "nonpayable",
      "type": "function"
    },
    {
      "inputs": [
        {
          "internalType": "address",
          "name": "from",
          "type": "address"
        },
        {
          "internalType": "address",
          "name": "to",
          "type": "address"
        },
        {
          "internalType": "uint256",
          "name": "id",
          "type": "uint256"
        }
      ],
      "name": "safeTransferFrom",
      "outputs": [],
      "stateMutability": "nonpayable",
      "type": "function"
    },
    {
      "inputs": [
        {
          "internalType": "address",
          "name": "from",
          "type": "address"
        },
        {
          "internalType": "address",
          "name": "to",
          "type": "address"
        },
        {
          "internalType": "uint256",
          "name": "id",
          "type": "uint256"
        },
        {
          "internalType": "bytes",
          "name": "data",
          "type": "bytes"
        }
      ],
      "name": "safeTransferFrom",
      "outputs": [],
      "stateMutability": "nonpayable",
      "type": "function"
    },
    {
      "inputs": [
        {
          "internalType": "address",
          "name": "operator",
          "type": "address"
        },
        {
          "internalType": "bool",
          "name": "approved",
          "type": "bool"
        }
      ],
      "name": "setApprovalForAll",
      "outputs": [],
      "stateMutability": "nonpayable",
      "type": "function"
    },
    {
      "inputs": [
        {
          "internalType": "bytes4",
          "name": "interfaceId",
          "type": "bytes4"
        }
      ],
      "name": "supportsInterface",
      "outputs": [
        {
          "internalType": "bool",
          "name": "",
          "type": "bool"
        }
      ],
      "stateMutability": "view",
      "type": "function"
    },
    {
      "inputs": [],
      "name": "symbol",
      "outputs": [
        {
          "internalType": "string",
          "name": "",
          "type": "string"
        }
      ],
      "stateMutability": "view",
      "type": "function"
    },
    {
      "inputs": [
        {
          "internalType": "uint256",
          "name": "id",
          "type": "uint256"
        }
      ],
      "name": "tokenURI",
      "outputs": [
        {
          "internalType": "string",
          "name": "",
          "type": "string"
        }
      ],
      "stateMutability": "view",
      "type": "function"
    },
    {
      "inputs": [],
      "name": "totalSupply",
      "outputs": [
        {
          "internalType": "uint256",
          "name": "",
          "type": "uint256"
        }
      ],
      "stateMutability": "view",
      "type": "function"
    },
    {
      "inputs": [
        {
          "internalType": "address",
          "name": "from",
          "type": "address"
        },
        {
          "internalType": "address",
          "name": "to",
          "type": "address"
        },
        {
          "internalType": "uint256",
          "name": "id",
          "type": "uint256"
        }
      ],
      "name": "transferFrom",
      "outputs": [],
      "stateMutability": "nonpayable",
      "type": "function"
    }
  ],
  "bytecode": {
    "object": "0x60c06040523480156200001157600080fd5b50604080518082018252600881526725b2bcb1b430b4b760c11b6020808301918252835180850190945260038452624b455960e81b9084015281519192916200005d9160009162000129565b5080516200007390600190602084019062000129565b50504660805250620000846200008d565b60a052620002ae565b60007f8b73c3c69bb8fe3d512ecc4cf759cc79239f7b179b0ffacaa9a75d522b39400f6000604051620000c191906200020b565b6040805191829003822060208301939093528101919091527fc89efdaa54c0f20c7adf612882df0950f5a951637e0307cdcb4c672f298b8bc660608201524660808201523060a082015260c00160405160208183030381529060405280519060200120905090565b8280546200013790620001cf565b90600052602060002090601f0160209004810192826200015b5760008555620001a6565b82601f106200017657805160ff1916838001178555620001a6565b82800160010185558215620001a6579182015b82811115620001a657825182559160200191906001019062000189565b50620001b4929150620001b8565b5090565b5b80821115620001b45760008155600101620001b9565b600181811c90821680620001e457607f821691505b6020821081036200020557634e487b7160e01b600052602260045260246000fd5b50919050565b600080835481600182811c9150808316806200022857607f831692505b602080841082036200024857634e487b7160e01b86526022600452602486fd5b8180156200025f57600181146200027157620002a0565b60ff19861689528489019650620002a0565b60008a81526020902060005b86811015620002985781548b8201529085019083016200027d565b505084890196505b509498975050505050505050565b60805160a051611a31620002d46000396000610a8e01526000610a590152611a316000f3fe60806040526004361061014b5760003560e01c80634a4fbeec116100b6578063a22cb4651161006f578063a22cb465146103f0578063ac9650d814610410578063b3dd4af514610430578063b88d4fde14610450578063c87b56dd14610470578063e985e9c51461049e57600080fd5b80634a4fbeec146103385780636352211e1461036857806370a0823114610388578063710a9f68146103a85780637ac2ff7b146103bb57806395d89b41146103db57600080fd5b806318160ddd1161010857806318160ddd146102725780631aa95ddb14610288578063201318af146102c357806323b872dd146102e35780633644e5151461030357806342842e0e1461031857600080fd5b806301ffc9a71461015057806306fdde0314610185578063081812fc146101a7578063092a5400146101f5578063095ea7b314610223578063141a468c14610245575b600080fd5b34801561015c57600080fd5b5061017061016b366004611495565b6104d9565b60405190151581526020015b60405180910390f35b34801561019157600080fd5b5061019a61052b565b60405161017c9190611506565b3480156101b357600080fd5b506101dd6101c2366004611519565b6004602052600090815260409020546001600160a01b031681565b6040516001600160a01b03909116815260200161017c565b34801561020157600080fd5b50610215610210366004611549565b6105b9565b60405190815260200161017c565b34801561022f57600080fd5b5061024361023e36600461157c565b610695565b005b34801561025157600080fd5b50610215610260366004611519565b60076020526000908152604090205481565b34801561027e57600080fd5b5061021560065481565b34801561029457600080fd5b506101706102a33660046115a6565b600960209081526000928352604080842090915290825290205460ff1681565b3480156102cf57600080fd5b506102436102de3660046115a6565b61077c565b3480156102ef57600080fd5b506102436102fe3660046115c9565b61088e565b34801561030f57600080fd5b50610215610a55565b34801561032457600080fd5b506102436103333660046115c9565b610ab0565b34801561034457600080fd5b50610170610353366004611605565b60086020526000908152604090205460ff1681565b34801561037457600080fd5b506101dd610383366004611519565b610ba8565b34801561039457600080fd5b506102156103a3366004611605565b610bff565b6102436103b6366004611669565b610c62565b3480156103c757600080fd5b506102436103d63660046116c3565b610d9c565b3480156103e757600080fd5b5061019a61101b565b3480156103fc57600080fd5b5061024361040b366004611723565b611028565b61042361041e36600461175f565b611094565b60405161017c91906117d4565b34801561043c57600080fd5b5061024361044b3660046115a6565b611110565b34801561045c57600080fd5b5061024361046b366004611836565b6111ef565b34801561047c57600080fd5b5061019a61048b366004611519565b5060408051602081019091526000815290565b3480156104aa57600080fd5b506101706104b9366004611549565b600560209081526000928352604080842090915290825290205460ff1681565b60006301ffc9a760e01b6001600160e01b03198316148061050a57506380ac58cd60e01b6001600160e01b03198316145b806105255750635b5e139f60e01b6001600160e01b03198316145b92915050565b60008054610538906118a5565b80601f0160208091040260200160405190810160405280929190818152602001828054610564906118a5565b80156105b15780601f10610586576101008083540402835291602001916105b1565b820191906000526020600020905b81548152906001019060200180831161059457829003601f168201915b505050505081565b60068054600101908190556001600160a01b03821660009081526008602052604090205460ff16156105fe5760405163126518b960e21b815260040160405180910390fd5b6001600160a01b03821660008181526008602090815260408083208054600160ff1991821681179092558685526009845282852095855294909252909120805490921617905561064e83826112d7565b80826001600160a01b0316846001600160a01b03167ffe7476280cfd157207cdf297fcfd595bd42969cc4aee410188bb4da664f8995a60405160405180910390a492915050565b6000818152600260205260409020546001600160a01b0316338114806106de57506001600160a01b038116600090815260056020908152604080832033845290915290205460ff165b6107205760405162461bcd60e51b815260206004820152600e60248201526d1393d517d055551213d49256915160921b60448201526064015b60405180910390fd5b60008281526004602052604080822080546001600160a01b0319166001600160a01b0387811691821790925591518593918516917f8c5be1e5ebec7d5bd14f71427d1e84f3dd0314c0f7b2291e5b200ac8c7c3b92591a4505050565b6000828152600260205260409020546001600160a01b031633146107b357604051636daf24f760e01b815260040160405180910390fd5b6001600160a01b03811660009081526008602052604090205460ff16806107fc575060008281526009602090815260408083206001600160a01b038516845290915290205460ff165b1561081a5760405163126518b960e21b815260040160405180910390fd5b6001600160a01b03811660008181526008602090815260408083208054600160ff199182168117909255878552600984528285208686529093528184208054909316179091555184929133917f4f0ab7ad4dcbbc10728e86caad81a33c709ad5b2ff1b312905466fb480dc8c2e9190a45050565b6000818152600260205260409020546001600160a01b038481169116146108e45760405162461bcd60e51b815260206004820152600a60248201526957524f4e475f46524f4d60b01b6044820152606401610717565b6001600160a01b03821661092e5760405162461bcd60e51b81526020600482015260116024820152701253959053125117d49150d25412515395607a1b6044820152606401610717565b336001600160a01b038416148061096857506001600160a01b038316600090815260056020908152604080832033845290915290205460ff165b8061098957506000818152600460205260409020546001600160a01b031633145b6109c65760405162461bcd60e51b815260206004820152600e60248201526d1393d517d055551213d49256915160921b6044820152606401610717565b6001600160a01b0380841660008181526003602090815260408083208054600019019055938616808352848320805460010190558583526002825284832080546001600160a01b03199081168317909155600490925284832080549092169091559251849392917fddf252ad1be2c89b69c2b068fc378daa952ba7f163c4a11628f55a4df523b3ef91a4505050565b60007f00000000000000000000000000000000000000000000000000000000000000004614610a8b57610a866113e2565b905090565b507f000000000000000000000000000000000000000000000000000000000000000090565b610abb83838361088e565b6001600160a01b0382163b1580610b645750604051630a85bd0160e11b8082523360048301526001600160a01b03858116602484015260448301849052608060648401526000608484015290919084169063150b7a029060a4016020604051808303816000875af1158015610b34573d6000803e3d6000fd5b505050506040513d601f19601f82011682018060405250810190610b5891906118df565b6001600160e01b031916145b610ba35760405162461bcd60e51b815260206004820152601060248201526f155394d0519157d49150d2541251539560821b6044820152606401610717565b505050565b6000818152600260205260409020546001600160a01b031680610bfa5760405162461bcd60e51b815260206004820152600a6024820152691393d517d3525395115160b21b6044820152606401610717565b919050565b60006001600160a01b038216610c465760405162461bcd60e51b815260206004820152600c60248201526b5a45524f5f4144445245535360a01b6044820152606401610717565b506001600160a01b031660009081526003602052604090205490565b6000848152600260205260409020546001600160a01b03163314610c9957604051636daf24f760e01b815260040160405180910390fd5b60008481526009602090815260408083206001600160a01b038716845290915290205460ff16610cdc57604051630eda9c3d60e31b815260040160405180910390fd5b6000836001600160a01b0316348484604051610cf99291906118fc565b60006040518083038185875af1925050503d8060008114610d36576040519150601f19603f3d011682016040523d82523d6000602084013e610d3b565b606091505b5050905080610d5d57604051633204506f60e01b815260040160405180910390fd5b60405185906001600160a01b0386169033907f0b4cc36697383317d309d87c69f1007b5928de24e0db567862e3216d0dfda78d90600090a45050505050565b42841015610dec5760405162461bcd60e51b815260206004820152601760248201527f5045524d49545f444541444c494e455f455850495245440000000000000000006044820152606401610717565b60006001610df8610a55565b60008881526007602090815260409182902080546001810190915582517f686e7c5f33900b48eaa29093d47f853a8442d4285c0ef7d8fba4444490774b6e818401526001600160a01b038d1681850152606081018c9052608081019190915260a08082018b90528351808303909101815260c082019093528251929091019190912061190160f01b60e083015260e28201929092526101028101919091526101220160408051601f198184030181528282528051602091820120600084529083018083525260ff871690820152606081018590526080810184905260a0016020604051602081039080840390855afa158015610ef8573d6000803e3d6000fd5b5050604051601f1901519150506001600160a01b03811615801590610f3657506000868152600260205260409020546001600160a01b038281169116145b610f735760405162461bcd60e51b815260206004820152600e60248201526d24a72b20a624a22fa9a4a3a722a960911b6044820152606401610717565b6001600160a01b038716610fbb5760405162461bcd60e51b815260206004820152600f60248201526e24a72b20a624a22fa9a822a72222a960891b6044820152606401610717565b60008681526004602052604080822080546001600160a01b0319166001600160a01b038b811691821790925591518993918516917f8c5be1e5ebec7d5bd14f71427d1e84f3dd0314c0f7b2291e5b200ac8c7c3b92591a450505050505050565b60018054610538906118a5565b3360008181526005602090815260408083206001600160a01b03871680855290835292819020805460ff191686151590811790915590519081529192917f17307eab39ab6107e8899845ad3d59bd9653f200f220920489ca2b5937696c31910160405180910390a35050565b606081156105255750604051818152602001600582901b808483378101805b825185018035602082018337600080823584305af46110d6573d6000803e3d6000fd5b508083526020830192503d81523d6000602083013e3d01603f0167ffffffffffffffe0168183106110b35760408051919052949350505050565b6000828152600260205260409020546001600160a01b0316331461114757604051636daf24f760e01b815260040160405180910390fd5b6001600160a01b03811660009081526008602052604090205460ff16611180576040516352eee19960e11b815260040160405180910390fd5b6001600160a01b0381166000818152600860209081526040808320805460ff199081169091558684526009835281842085855290925280832080549092169091555184929133917f6132b36c315c26c8465344b9915b4555f938b7b64e8bc51c73ea148f4e4e64589190a45050565b6111fa85858561088e565b6001600160a01b0384163b15806112915750604051630a85bd0160e11b808252906001600160a01b0386169063150b7a02906112429033908a9089908990899060040161190c565b6020604051808303816000875af1158015611261573d6000803e3d6000fd5b505050506040513d601f19601f8201168201806040525081019061128591906118df565b6001600160e01b031916145b6112d05760405162461bcd60e51b815260206004820152601060248201526f155394d0519157d49150d2541251539560821b6044820152606401610717565b5050505050565b6001600160a01b0382166113215760405162461bcd60e51b81526020600482015260116024820152701253959053125117d49150d25412515395607a1b6044820152606401610717565b6000818152600260205260409020546001600160a01b0316156113775760405162461bcd60e51b815260206004820152600e60248201526d1053149150511657d3525395115160921b6044820152606401610717565b6001600160a01b038216600081815260036020908152604080832080546001019055848352600290915280822080546001600160a01b0319168417905551839291907fddf252ad1be2c89b69c2b068fc378daa952ba7f163c4a11628f55a4df523b3ef908290a45050565b60007f8b73c3c69bb8fe3d512ecc4cf759cc79239f7b179b0ffacaa9a75d522b39400f60006040516114149190611960565b6040805191829003822060208301939093528101919091527fc89efdaa54c0f20c7adf612882df0950f5a951637e0307cdcb4c672f298b8bc660608201524660808201523060a082015260c00160405160208183030381529060405280519060200120905090565b6001600160e01b03198116811461149257600080fd5b50565b6000602082840312156114a757600080fd5b81356114b28161147c565b9392505050565b6000815180845260005b818110156114df576020818501810151868301820152016114c3565b818111156114f1576000602083870101525b50601f01601f19169290920160200192915050565b6020815260006114b260208301846114b9565b60006020828403121561152b57600080fd5b5035919050565b80356001600160a01b0381168114610bfa57600080fd5b6000806040838503121561155c57600080fd5b61156583611532565b915061157360208401611532565b90509250929050565b6000806040838503121561158f57600080fd5b61159883611532565b946020939093013593505050565b600080604083850312156115b957600080fd5b8235915061157360208401611532565b6000806000606084860312156115de57600080fd5b6115e784611532565b92506115f560208501611532565b9150604084013590509250925092565b60006020828403121561161757600080fd5b6114b282611532565b60008083601f84011261163257600080fd5b50813567ffffffffffffffff81111561164a57600080fd5b60208301915083602082850101111561166257600080fd5b9250929050565b6000806000806060858703121561167f57600080fd5b8435935061168f60208601611532565b9250604085013567ffffffffffffffff8111156116ab57600080fd5b6116b787828801611620565b95989497509550505050565b60008060008060008060c087890312156116dc57600080fd5b6116e587611532565b95506020870135945060408701359350606087013560ff8116811461170957600080fd5b9598949750929560808101359460a0909101359350915050565b6000806040838503121561173657600080fd5b61173f83611532565b91506020830135801515811461175457600080fd5b809150509250929050565b6000806020838503121561177257600080fd5b823567ffffffffffffffff8082111561178a57600080fd5b818501915085601f83011261179e57600080fd5b8135818111156117ad57600080fd5b8660208260051b85010111156117c257600080fd5b60209290920196919550909350505050565b6000602080830181845280855180835260408601915060408160051b870101925083870160005b8281101561182957603f198886030184526118178583516114b9565b945092850192908501906001016117fb565b5092979650505050505050565b60008060008060006080868803121561184e57600080fd5b61185786611532565b945061186560208701611532565b935060408601359250606086013567ffffffffffffffff81111561188857600080fd5b61189488828901611620565b969995985093965092949392505050565b600181811c908216806118b957607f821691505b6020821081036118d957634e487b7160e01b600052602260045260246000fd5b50919050565b6000602082840312156118f157600080fd5b81516114b28161147c565b8183823760009101908152919050565b6001600160a01b038681168252851660208201526040810184905260806060820181905281018290526000828460a0840137600060a0848401015260a0601f19601f85011683010190509695505050505050565b600080835481600182811c91508083168061197c57607f831692505b6020808410820361199b57634e487b7160e01b86526022600452602486fd5b8180156119af57600181146119c0576119ed565b60ff198616895284890196506119ed565b60008a81526020902060005b868110156119e55781548b8201529085019083016119cc565b505084890196505b50949897505050505050505056fea26469706673582212209cb9f43f622f21352e42c9e1116fdcaa9266726f4defcc964257fe7e3dee027c64736f6c634300080d0033",
    "linkReferences": {}
  }
}